{
    "contractName": "NFTStaker",
    "abi": [
        {
            "inputs": [
                {
                    "internalType": "contract IERC721",
                    "name": "_address",
                    "type": "address"
                },
                {
                    "internalType": "address",
                    "name": "_rewardToken",
                    "type": "address"
                }
            ],
            "stateMutability": "nonpayable",
            "type": "constructor"
        },
        {
            "anonymous": false,
            "inputs": [
                {
                    "indexed": true,
                    "internalType": "address",
                    "name": "previousOwner",
                    "type": "address"
                },
                {
                    "indexed": true,
                    "internalType": "address",
                    "name": "newOwner",
                    "type": "address"
                }
            ],
            "name": "OwnershipTransferred",
            "type": "event"
        },
        {
            "inputs": [],
            "name": "_decimals",
            "outputs": [
                {
                    "internalType": "uint256",
                    "name": "",
                    "type": "uint256"
                }
            ],
            "stateMutability": "view",
            "type": "function"
        },
        {
            "inputs": [
                {
                    "internalType": "address",
                    "name": "",
                    "type": "address"
                },
                {
                    "internalType": "uint256",
                    "name": "",
                    "type": "uint256"
                }
            ],
            "name": "addressToTokenIdMap",
            "outputs": [
                {
                    "internalType": "uint256",
                    "name": "",
                    "type": "uint256"
                }
            ],
            "stateMutability": "view",
            "type": "function"
        },
        {
            "inputs": [
                {
                    "internalType": "uint256",
                    "name": "tokenId",
                    "type": "uint256"
                }
            ],
            "name": "calculateReward",
            "outputs": [
                {
                    "internalType": "uint256",
                    "name": "",
                    "type": "uint256"
                },
                {
                    "internalType": "uint256",
                    "name": "",
                    "type": "uint256"
                }
            ],
            "stateMutability": "view",
            "type": "function"
        },
        {
            "inputs": [
                {
                    "internalType": "uint256",
                    "name": "tokenId",
                    "type": "uint256"
                }
            ],
            "name": "collectReward",
            "outputs": [],
            "stateMutability": "nonpayable",
            "type": "function"
        },
        {
            "inputs": [],
            "name": "collectRewards",
            "outputs": [],
            "stateMutability": "nonpayable",
            "type": "function"
        },
        {
            "inputs": [
                {
                    "internalType": "uint256",
                    "name": "tokenId",
                    "type": "uint256"
                }
            ],
            "name": "depositNFT",
            "outputs": [],
            "stateMutability": "nonpayable",
            "type": "function"
        },
        {
            "inputs": [
                {
                    "internalType": "uint256",
                    "name": "tokenId",
                    "type": "uint256"
                }
            ],
            "name": "getRewardPerDay",
            "outputs": [
                {
                    "internalType": "uint256",
                    "name": "",
                    "type": "uint256"
                }
            ],
            "stateMutability": "view",
            "type": "function"
        },
        {
            "inputs": [
                {
                    "internalType": "uint256",
                    "name": "tokenId",
                    "type": "uint256"
                }
            ],
            "name": "getStakerInfo",
            "outputs": [
                {
                    "components": [
                        {
                            "internalType": "address",
                            "name": "nftOwner",
                            "type": "address"
                        },
                        {
                            "internalType": "uint256",
                            "name": "timeStaked",
                            "type": "uint256"
                        },
                        {
                            "internalType": "uint256",
                            "name": "leftover",
                            "type": "uint256"
                        }
                    ],
                    "internalType": "struct NFTStaker.StakerInfo",
                    "name": "",
                    "type": "tuple"
                }
            ],
            "stateMutability": "view",
            "type": "function"
        },
        {
            "inputs": [
                {
                    "internalType": "address",
                    "name": "operator",
                    "type": "address"
                },
                {
                    "internalType": "address",
                    "name": "from",
                    "type": "address"
                },
                {
                    "internalType": "uint256",
                    "name": "tokenId",
                    "type": "uint256"
                },
                {
                    "internalType": "bytes",
                    "name": "data",
                    "type": "bytes"
                }
            ],
            "name": "onERC721Received",
            "outputs": [
                {
                    "internalType": "bytes4",
                    "name": "",
                    "type": "bytes4"
                }
            ],
            "stateMutability": "nonpayable",
            "type": "function"
        },
        {
            "inputs": [],
            "name": "owner",
            "outputs": [
                {
                    "internalType": "address",
                    "name": "",
                    "type": "address"
                }
            ],
            "stateMutability": "view",
            "type": "function"
        },
        {
            "inputs": [],
            "name": "renounceOwnership",
            "outputs": [],
            "stateMutability": "nonpayable",
            "type": "function"
        },
        {
            "inputs": [],
            "name": "rewardToken",
            "outputs": [
                {
                    "internalType": "contract StakeRewardToken",
                    "name": "",
                    "type": "address"
                }
            ],
            "stateMutability": "view",
            "type": "function"
        },
        {
            "inputs": [
                {
                    "internalType": "uint256",
                    "name": "",
                    "type": "uint256"
                }
            ],
            "name": "rewardsPerDay",
            "outputs": [
                {
                    "internalType": "uint256",
                    "name": "",
                    "type": "uint256"
                }
            ],
            "stateMutability": "view",
            "type": "function"
        },
        {
            "inputs": [],
            "name": "stakeableNFT",
            "outputs": [
                {
                    "internalType": "contract IERC721",
                    "name": "",
                    "type": "address"
                }
            ],
            "stateMutability": "view",
            "type": "function"
        },
        {
            "inputs": [
                {
                    "internalType": "uint256",
                    "name": "",
                    "type": "uint256"
                }
            ],
            "name": "tokenIdToStaker",
            "outputs": [
                {
                    "internalType": "address",
                    "name": "nftOwner",
                    "type": "address"
                },
                {
                    "internalType": "uint256",
                    "name": "timeStaked",
                    "type": "uint256"
                },
                {
                    "internalType": "uint256",
                    "name": "leftover",
                    "type": "uint256"
                }
            ],
            "stateMutability": "view",
            "type": "function"
        },
        {
            "inputs": [
                {
                    "internalType": "address",
                    "name": "newOwner",
                    "type": "address"
                }
            ],
            "name": "transferOwnership",
            "outputs": [],
            "stateMutability": "nonpayable",
            "type": "function"
        },
        {
            "inputs": [
                {
                    "internalType": "uint256",
                    "name": "tokenId",
                    "type": "uint256"
                }
            ],
            "name": "withdrawNFT",
            "outputs": [],
            "stateMutability": "nonpayable",
            "type": "function"
        }
    ],
    "bytecode": "610340604052600a60c0818152600b60e0819052600d610100819052610120819052600c6101408190526010610160819052601161018081905260126101a0819052600e6101c08190526101e0939093526102009790975261022092909252610240839052600f61026052610280929092526102a0919091526102c0919091526102e08190526103005261032091909152620000a09060039060146200014e565b506017805460ff19169055348015620000b857600080fd5b5060405162000f6c38038062000f6c833981016040819052620000db91620001c6565b620000e633620000fe565b6001600160a01b039182166080521660a05262000205565b600080546001600160a01b038381166001600160a01b0319831681178455604051919092169283917f8be0079c531659141344cd1fd0a4f28419497f9722a3daafe3b4186f6b6457e09190a35050565b826014810192821562000184579160200282015b8281111562000184578251829060ff1690559160200191906001019062000162565b506200019292915062000196565b5090565b5b8082111562000192576000815560010162000197565b6001600160a01b0381168114620001c357600080fd5b50565b60008060408385031215620001da57600080fd5b8251620001e781620001ad565b6020840151909250620001fa81620001ad565b809150509250929050565b60805160a051610d2562000247600039600081816103080152610926015260008181610184015281816103f90152818161049e01526107710152610d256000f3fe608060405234801561001057600080fd5b506004361061010b5760003560e01c80638da5cb5b116100a2578063e91a7ca611610071578063e91a7ca61461028c578063e95abd521461029f578063e9ac56ba146102dd578063f2fde38b146102f0578063f7c618c11461030357600080fd5b80638da5cb5b1461022d578063b3fe65f01461023e578063bd3507da14610251578063d2d7231f1461026457600080fd5b80634c30ba54116100de5780634c30ba541461017f57806370bb45b3146101be57806370f8f9d9146101c6578063715018a61461022557600080fd5b8063023245d7146101105780630a46a00814610125578063150b7a021461014b57806332424aa314610177575b600080fd5b61012361011e366004610a39565b61032a565b005b610138610133366004610a6e565b610460565b6040519081526020015b60405180910390f35b61015e610159366004610a98565b610491565b6040516001600160e01b03199091168152602001610142565b610138601281565b6101a67f000000000000000000000000000000000000000000000000000000000000000081565b6040516001600160a01b039091168152602001610142565b6101236105cb565b6102006101d4366004610a39565b60016020819052600091825260409091208054918101546002909101546001600160a01b039092169183565b604080516001600160a01b039094168452602084019290925290820152606001610142565b61012361062e565b6000546001600160a01b03166101a6565b61013861024c366004610a39565b610642565b61012361025f366004610a39565b610659565b610277610272366004610a39565b610662565b60408051928352602083019190915201610142565b61012361029a366004610a39565b61072a565b6102b26102ad366004610a39565b6107da565b6040805182516001600160a01b03168152602080840151908201529181015190820152606001610142565b6101386102eb366004610a39565b610848565b6101236102fe366004610b33565b610865565b6101a67f000000000000000000000000000000000000000000000000000000000000000081565b33610334826107da565b516001600160a01b0316146103855760405162461bcd60e51b81526020600482015260126024820152712737ba1037b934b3b4b730b61037bbb732b960711b60448201526064015b60405180910390fd5b600081815260016020818152604080842080546001600160a01b0319168155928301849055600292830184905533845291905290208054829081106103cc576103cc610b55565b6000918252602082200155604051632142170760e11b8152306004820152336024820152604481018290527f00000000000000000000000000000000000000000000000000000000000000006001600160a01b0316906342842e0e90606401600060405180830381600087803b15801561044557600080fd5b505af1158015610459573d6000803e3d6000fd5b5050505050565b6002602052816000526040600020818154811061047c57600080fd5b90600052602060002001600091509150505481565b6000336001600160a01b037f000000000000000000000000000000000000000000000000000000000000000016146105005760405162461bcd60e51b8152602060048201526012602482015271139bdb881858d8d95c1d18589b194813919560721b604482015260640161037c565b60175460ff1661056f5760405162461bcd60e51b815260206004820152603460248201527f506c65617365207472616e7366657220746865204e4654207468726f756768206044820152733a34329039ba30b5b4b73390333ab731ba34b7b760611b606482015260840161037c565b505050600081815260016020818152604080842080546001600160a01b0319166001600160a01b039790971696871781554290840155948352600281529382208054918201815582529290209091015550630a85bd0160e11b90565b60005b3360009081526002602052604090205481101561062b57336000908152600260205260409020805461061b91908390811061060b5761060b610b55565b90600052602060002001546108db565b61062481610b81565b90506105ce565b50565b61063661098f565b61064060006109e9565b565b6003816014811061065257600080fd5b0154905081565b61062b816108db565b600081815260016020819052604082200154819081906106829042610b9a565b9050600062015180826106976012600a610c97565b600388601481106106aa576106aa610b55565b01546106b69190610ca3565b6106c09190610ca3565b6106ca9190610cba565b6000868152600160205260409020600201546106e69190610cdc565b905060006106fc670de0b6b3a764000083610cba565b61070e90670de0b6b3a7640000610ca3565b9050600061071c8284610b9a565b919791965090945050505050565b60175460ff161561073a57600080fd5b6017805460ff19166001179055604051632142170760e11b8152336004820152306024820152604481018290526001600160a01b037f000000000000000000000000000000000000000000000000000000000000000016906342842e0e90606401600060405180830381600087803b1580156107b557600080fd5b505af11580156107c9573d6000803e3d6000fd5b50506017805460ff19169055505050565b610807604051806060016040528060006001600160a01b0316815260200160008152602001600081525090565b50600090815260016020818152604092839020835160608101855281546001600160a01b031681529281015491830191909152600201549181019190915290565b60006003826014811061085d5761085d610b55565b015492915050565b61086d61098f565b6001600160a01b0381166108d25760405162461bcd60e51b815260206004820152602660248201527f4f776e61626c653a206e6577206f776e657220697320746865207a65726f206160448201526564647265737360d01b606482015260840161037c565b61062b816109e9565b6000806108e783610662565b60008581526001602081905260409182902042918101919091556002018290555163084eba7160e11b81526004810183905233602482015291935091507f00000000000000000000000000000000000000000000000000000000000000006001600160a01b03169063109d74e290604401600060405180830381600087803b15801561097257600080fd5b505af1158015610986573d6000803e3d6000fd5b50505050505050565b6000546001600160a01b031633146106405760405162461bcd60e51b815260206004820181905260248201527f4f776e61626c653a2063616c6c6572206973206e6f7420746865206f776e6572604482015260640161037c565b600080546001600160a01b038381166001600160a01b0319831681178455604051919092169283917f8be0079c531659141344cd1fd0a4f28419497f9722a3daafe3b4186f6b6457e09190a35050565b600060208284031215610a4b57600080fd5b5035919050565b80356001600160a01b0381168114610a6957600080fd5b919050565b60008060408385031215610a8157600080fd5b610a8a83610a52565b946020939093013593505050565b600080600080600060808688031215610ab057600080fd5b610ab986610a52565b9450610ac760208701610a52565b935060408601359250606086013567ffffffffffffffff80821115610aeb57600080fd5b818801915088601f830112610aff57600080fd5b813581811115610b0e57600080fd5b896020828501011115610b2057600080fd5b9699959850939650602001949392505050565b600060208284031215610b4557600080fd5b610b4e82610a52565b9392505050565b634e487b7160e01b600052603260045260246000fd5b634e487b7160e01b600052601160045260246000fd5b600060018201610b9357610b93610b6b565b5060010190565b81810381811115610bad57610bad610b6b565b92915050565b600181815b80851115610bee578160001904821115610bd457610bd4610b6b565b80851615610be157918102915b93841c9390800290610bb8565b509250929050565b600082610c0557506001610bad565b81610c1257506000610bad565b8160018114610c285760028114610c3257610c4e565b6001915050610bad565b60ff841115610c4357610c43610b6b565b50506001821b610bad565b5060208310610133831016604e8410600b8410161715610c71575081810a610bad565b610c7b8383610bb3565b8060001904821115610c8f57610c8f610b6b565b029392505050565b6000610b4e8383610bf6565b8082028115828204841417610bad57610bad610b6b565b600082610cd757634e487b7160e01b600052601260045260246000fd5b500490565b80820180821115610bad57610bad610b6b56fea2646970667358221220ae91c670c91b23abcf9e8e3332f03f26c1958282477e7572b098f3c2abe7612c64736f6c63430008130033",
    "sourcePath": "d:/Rareskills/Testing-Mutation-Static/src/NFTStaker.sol",
    "compiler": {
        "name": "solc",
        "version": "0.8.19+commit.7dd6d404"
    },
    "functionHashes": {
        "_decimals()": "32424aa3",
        "addressToTokenIdMap(address,uint256)": "0a46a008",
        "calculateReward(uint256)": "d2d7231f",
        "collectReward(uint256)": "bd3507da",
        "collectRewards()": "70bb45b3",
        "depositNFT(uint256)": "e91a7ca6",
        "getRewardPerDay(uint256)": "e9ac56ba",
        "getStakerInfo(uint256)": "e95abd52",
        "onERC721Received(address,address,uint256,bytes)": "150b7a02",
        "owner()": "8da5cb5b",
        "renounceOwnership()": "715018a6",
        "rewardToken()": "f7c618c1",
        "rewardsPerDay(uint256)": "b3fe65f0",
        "stakeableNFT()": "4c30ba54",
        "tokenIdToStaker(uint256)": "70f8f9d9",
        "transferOwnership(address)": "f2fde38b",
        "withdrawNFT(uint256)": "023245d7"
    },
    "gasEstimates": {
        "creation": {
            "codeDepositCost": "673000",
            "executionCost": "infinite",
            "totalCost": "infinite"
        },
        "external": {
            "_decimals()": "274",
            "addressToTokenIdMap(address,uint256)": "4779",
            "calculateReward(uint256)": "infinite",
            "collectReward(uint256)": "infinite",
            "collectRewards()": "infinite",
            "depositNFT(uint256)": "infinite",
            "getRewardPerDay(uint256)": "2478",
            "getStakerInfo(uint256)": "7010",
            "onERC721Received(address,address,uint256,bytes)": "infinite",
            "owner()": "2354",
            "renounceOwnership()": "infinite",
            "rewardToken()": "infinite",
            "rewardsPerDay(uint256)": "2452",
            "stakeableNFT()": "infinite",
            "tokenIdToStaker(uint256)": "6828",
            "transferOwnership(address)": "28421",
            "withdrawNFT(uint256)": "infinite"
        },
        "internal": {
            "collectTokenRewards(uint256)": "infinite"
        }
    }
}