{
  "abi": [
    {
      "inputs": [],
      "stateMutability": "nonpayable",
      "type": "constructor"
    },
    {
      "anonymous": false,
      "inputs": [
        {
          "indexed": true,
          "internalType": "address",
          "name": "owner",
          "type": "address"
        },
        {
          "indexed": true,
          "internalType": "address",
          "name": "approved",
          "type": "address"
        },
        {
          "indexed": true,
          "internalType": "uint256",
          "name": "tokenId",
          "type": "uint256"
        }
      ],
      "name": "Approval",
      "type": "event"
    },
    {
      "anonymous": false,
      "inputs": [
        {
          "indexed": true,
          "internalType": "address",
          "name": "owner",
          "type": "address"
        },
        {
          "indexed": true,
          "internalType": "address",
          "name": "operator",
          "type": "address"
        },
        {
          "indexed": false,
          "internalType": "bool",
          "name": "approved",
          "type": "bool"
        }
      ],
      "name": "ApprovalForAll",
      "type": "event"
    },
    {
      "anonymous": false,
      "inputs": [
        {
          "indexed": true,
          "internalType": "address",
          "name": "from",
          "type": "address"
        },
        {
          "indexed": true,
          "internalType": "address",
          "name": "to",
          "type": "address"
        },
        {
          "indexed": true,
          "internalType": "uint256",
          "name": "tokenId",
          "type": "uint256"
        }
      ],
      "name": "Transfer",
      "type": "event"
    },
    {
      "inputs": [],
      "name": "MAX_SUPPLY",
      "outputs": [
        {
          "internalType": "uint256",
          "name": "",
          "type": "uint256"
        }
      ],
      "stateMutability": "view",
      "type": "function"
    },
    {
      "inputs": [
        {
          "internalType": "address",
          "name": "to",
          "type": "address"
        },
        {
          "internalType": "uint256",
          "name": "tokenId",
          "type": "uint256"
        }
      ],
      "name": "approve",
      "outputs": [],
      "stateMutability": "nonpayable",
      "type": "function"
    },
    {
      "inputs": [
        {
          "internalType": "address",
          "name": "owner",
          "type": "address"
        }
      ],
      "name": "balanceOf",
      "outputs": [
        {
          "internalType": "uint256",
          "name": "",
          "type": "uint256"
        }
      ],
      "stateMutability": "view",
      "type": "function"
    },
    {
      "inputs": [
        {
          "internalType": "uint256",
          "name": "tokenId",
          "type": "uint256"
        }
      ],
      "name": "getApproved",
      "outputs": [
        {
          "internalType": "address",
          "name": "",
          "type": "address"
        }
      ],
      "stateMutability": "view",
      "type": "function"
    },
    {
      "inputs": [
        {
          "internalType": "address",
          "name": "owner",
          "type": "address"
        },
        {
          "internalType": "address",
          "name": "operator",
          "type": "address"
        }
      ],
      "name": "isApprovedForAll",
      "outputs": [
        {
          "internalType": "bool",
          "name": "",
          "type": "bool"
        }
      ],
      "stateMutability": "view",
      "type": "function"
    },
    {
      "inputs": [],
      "name": "mint",
      "outputs": [],
      "stateMutability": "nonpayable",
      "type": "function"
    },
    {
      "inputs": [],
      "name": "name",
      "outputs": [
        {
          "internalType": "string",
          "name": "",
          "type": "string"
        }
      ],
      "stateMutability": "view",
      "type": "function"
    },
    {
      "inputs": [
        {
          "internalType": "uint256",
          "name": "tokenId",
          "type": "uint256"
        }
      ],
      "name": "ownerOf",
      "outputs": [
        {
          "internalType": "address",
          "name": "",
          "type": "address"
        }
      ],
      "stateMutability": "view",
      "type": "function"
    },
    {
      "inputs": [
        {
          "internalType": "address",
          "name": "from",
          "type": "address"
        },
        {
          "internalType": "address",
          "name": "to",
          "type": "address"
        },
        {
          "internalType": "uint256",
          "name": "tokenId",
          "type": "uint256"
        }
      ],
      "name": "safeTransferFrom",
      "outputs": [],
      "stateMutability": "nonpayable",
      "type": "function"
    },
    {
      "inputs": [
        {
          "internalType": "address",
          "name": "from",
          "type": "address"
        },
        {
          "internalType": "address",
          "name": "to",
          "type": "address"
        },
        {
          "internalType": "uint256",
          "name": "tokenId",
          "type": "uint256"
        },
        {
          "internalType": "bytes",
          "name": "data",
          "type": "bytes"
        }
      ],
      "name": "safeTransferFrom",
      "outputs": [],
      "stateMutability": "nonpayable",
      "type": "function"
    },
    {
      "inputs": [
        {
          "internalType": "address",
          "name": "operator",
          "type": "address"
        },
        {
          "internalType": "bool",
          "name": "approved",
          "type": "bool"
        }
      ],
      "name": "setApprovalForAll",
      "outputs": [],
      "stateMutability": "nonpayable",
      "type": "function"
    },
    {
      "inputs": [
        {
          "internalType": "bytes4",
          "name": "interfaceId",
          "type": "bytes4"
        }
      ],
      "name": "supportsInterface",
      "outputs": [
        {
          "internalType": "bool",
          "name": "",
          "type": "bool"
        }
      ],
      "stateMutability": "view",
      "type": "function"
    },
    {
      "inputs": [],
      "name": "symbol",
      "outputs": [
        {
          "internalType": "string",
          "name": "",
          "type": "string"
        }
      ],
      "stateMutability": "view",
      "type": "function"
    },
    {
      "inputs": [],
      "name": "tokenSupply",
      "outputs": [
        {
          "internalType": "uint256",
          "name": "",
          "type": "uint256"
        }
      ],
      "stateMutability": "view",
      "type": "function"
    },
    {
      "inputs": [
        {
          "internalType": "uint256",
          "name": "tokenId",
          "type": "uint256"
        }
      ],
      "name": "tokenURI",
      "outputs": [
        {
          "internalType": "string",
          "name": "",
          "type": "string"
        }
      ],
      "stateMutability": "view",
      "type": "function"
    },
    {
      "inputs": [
        {
          "internalType": "address",
          "name": "from",
          "type": "address"
        },
        {
          "internalType": "address",
          "name": "to",
          "type": "address"
        },
        {
          "internalType": "uint256",
          "name": "tokenId",
          "type": "uint256"
        }
      ],
      "name": "transferFrom",
      "outputs": [],
      "stateMutability": "nonpayable",
      "type": "function"
    }
  ],
  "bytecode": {
    "object": "0x60806040523480156200001157600080fd5b506040518060400160405280600c81526020016b14dd185ad958589b1953919560a21b81525060405180604001604052806005815260200164537465616b60d81b815250816000908162000066919062000128565b50600162000075828262000128565b5050600060065550620001f4565b634e487b7160e01b600052604160045260246000fd5b600181811c90821680620000ae57607f821691505b602082108103620000cf57634e487b7160e01b600052602260045260246000fd5b50919050565b601f8211156200012357600081815260208120601f850160051c81016020861015620000fe5750805b601f850160051c820191505b818110156200011f578281556001016200010a565b5050505b505050565b81516001600160401b0381111562000144576200014462000083565b6200015c8162000155845462000099565b84620000d5565b602080601f8311600181146200019457600084156200017b5750858301515b600019600386901b1c1916600185901b1785556200011f565b600085815260208120601f198616915b82811015620001c557888601518255948401946001909101908401620001a4565b5085821015620001e45787850151600019600388901b60f8161c191681555b5050505050600190811b01905550565b6113ab80620002046000396000f3fe608060405234801561001057600080fd5b50600436106101005760003560e01c80636352211e11610097578063a22cb46511610066578063a22cb465146101fd578063b88d4fde14610210578063c87b56dd14610223578063e985e9c51461023657600080fd5b80636352211e146101c657806370a08231146101d95780637824407f146101ec57806395d89b41146101f557600080fd5b80631249c58b116100d35780631249c58b1461018257806323b872dd1461018a57806332cb6b0c1461019d57806342842e0e146101b357600080fd5b806301ffc9a71461010557806306fdde031461012d578063081812fc14610142578063095ea7b31461016d575b600080fd5b610118610113366004610eda565b610272565b60405190151581526020015b60405180910390f35b6101356102c4565b6040516101249190610f47565b610155610150366004610f5a565b610356565b6040516001600160a01b039091168152602001610124565b61018061017b366004610f8f565b61037d565b005b610180610497565b610180610198366004610fb9565b61050a565b6101a5601481565b604051908152602001610124565b6101806101c1366004610fb9565b61053b565b6101556101d4366004610f5a565b610556565b6101a56101e7366004610ff5565b6105b6565b6101a560065481565b61013561063c565b61018061020b366004611010565b61064b565b61018061021e366004611062565b61065a565b610135610231366004610f5a565b610692565b61011861024436600461113e565b6001600160a01b03918216600090815260056020908152604080832093909416825291909152205460ff1690565b60006001600160e01b031982166380ac58cd60e01b14806102a357506001600160e01b03198216635b5e139f60e01b145b806102be57506301ffc9a760e01b6001600160e01b03198316145b92915050565b6060600080546102d390611171565b80601f01602080910402602001604051908101604052809291908181526020018280546102ff90611171565b801561034c5780601f106103215761010080835404028352916020019161034c565b820191906000526020600020905b81548152906001019060200180831161032f57829003601f168201915b5050505050905090565b6000610361826106f9565b506000908152600460205260409020546001600160a01b031690565b600061038882610556565b9050806001600160a01b0316836001600160a01b0316036103fa5760405162461bcd60e51b815260206004820152602160248201527f4552433732313a20617070726f76616c20746f2063757272656e74206f776e656044820152603960f91b60648201526084015b60405180910390fd5b336001600160a01b038216148061041657506104168133610244565b6104885760405162461bcd60e51b815260206004820152603d60248201527f4552433732313a20617070726f76652063616c6c6572206973206e6f7420746f60448201527f6b656e206f776e6572206f7220617070726f76656420666f7220616c6c00000060648201526084016103f1565b610492838361075b565b505050565b6014600654106104e95760405162461bcd60e51b815260206004820152601760248201527f537570706c7920616c7265616479206174206c696d697400000000000000000060448201526064016103f1565b6104f5336006546107c9565b600660008154610504906111ab565b90915550565b6105143382610954565b6105305760405162461bcd60e51b81526004016103f1906111d2565b6104928383836109d3565b6104928383836040518060200160405280600081525061065a565b6000818152600260205260408120546001600160a01b0316806102be5760405162461bcd60e51b8152602060048201526018602482015277115490cdcc8c4e881a5b9d985b1a59081d1bdad95b88125160421b60448201526064016103f1565b60006001600160a01b0382166106205760405162461bcd60e51b815260206004820152602960248201527f4552433732313a2061646472657373207a65726f206973206e6f7420612076616044820152683634b21037bbb732b960b91b60648201526084016103f1565b506001600160a01b031660009081526003602052604090205490565b6060600180546102d390611171565b610656338383610b37565b5050565b6106643383610954565b6106805760405162461bcd60e51b81526004016103f1906111d2565b61068c84848484610c05565b50505050565b606061069d826106f9565b60006106a7610c38565b905060008151116106c757604051806020016040528060008152506106f2565b806106d184610c58565b6040516020016106e292919061121f565b6040516020818303038152906040525b9392505050565b6000818152600260205260409020546001600160a01b03166107585760405162461bcd60e51b8152602060048201526018602482015277115490cdcc8c4e881a5b9d985b1a59081d1bdad95b88125160421b60448201526064016103f1565b50565b600081815260046020526040902080546001600160a01b0319166001600160a01b038416908117909155819061079082610556565b6001600160a01b03167f8c5be1e5ebec7d5bd14f71427d1e84f3dd0314c0f7b2291e5b200ac8c7c3b92560405160405180910390a45050565b6001600160a01b03821661081f5760405162461bcd60e51b815260206004820181905260248201527f4552433732313a206d696e7420746f20746865207a65726f206164647265737360448201526064016103f1565b6000818152600260205260409020546001600160a01b0316156108845760405162461bcd60e51b815260206004820152601c60248201527f4552433732313a20746f6b656e20616c7265616479206d696e7465640000000060448201526064016103f1565b6000818152600260205260409020546001600160a01b0316156108e95760405162461bcd60e51b815260206004820152601c60248201527f4552433732313a20746f6b656e20616c7265616479206d696e7465640000000060448201526064016103f1565b6001600160a01b038216600081815260036020908152604080832080546001019055848352600290915280822080546001600160a01b0319168417905551839291907fddf252ad1be2c89b69c2b068fc378daa952ba7f163c4a11628f55a4df523b3ef908290a45050565b60008061096083610556565b9050806001600160a01b0316846001600160a01b031614806109a757506001600160a01b0380821660009081526005602090815260408083209388168352929052205460ff165b806109cb5750836001600160a01b03166109c084610356565b6001600160a01b0316145b949350505050565b826001600160a01b03166109e682610556565b6001600160a01b031614610a0c5760405162461bcd60e51b81526004016103f19061124e565b6001600160a01b038216610a6e5760405162461bcd60e51b8152602060048201526024808201527f4552433732313a207472616e7366657220746f20746865207a65726f206164646044820152637265737360e01b60648201526084016103f1565b826001600160a01b0316610a8182610556565b6001600160a01b031614610aa75760405162461bcd60e51b81526004016103f19061124e565b600081815260046020908152604080832080546001600160a01b03199081169091556001600160a01b0387811680865260038552838620805460001901905590871680865283862080546001019055868652600290945282852080549092168417909155905184937fddf252ad1be2c89b69c2b068fc378daa952ba7f163c4a11628f55a4df523b3ef91a4505050565b816001600160a01b0316836001600160a01b031603610b985760405162461bcd60e51b815260206004820152601960248201527f4552433732313a20617070726f766520746f2063616c6c65720000000000000060448201526064016103f1565b6001600160a01b03838116600081815260056020908152604080832094871680845294825291829020805460ff191686151590811790915591519182527f17307eab39ab6107e8899845ad3d59bd9653f200f220920489ca2b5937696c31910160405180910390a3505050565b610c108484846109d3565b610c1c84848484610ceb565b61068c5760405162461bcd60e51b81526004016103f190611293565b606060405180606001604052806036815260200161134060369139905090565b60606000610c6583610dec565b600101905060008167ffffffffffffffff811115610c8557610c8561104c565b6040519080825280601f01601f191660200182016040528015610caf576020820181803683370190505b5090508181016020015b600019016f181899199a1a9b1b9c1cb0b131b232b360811b600a86061a8153600a8504945084610cb957509392505050565b60006001600160a01b0384163b15610de157604051630a85bd0160e11b81526001600160a01b0385169063150b7a0290610d2f9033908990889088906004016112e5565b6020604051808303816000875af1925050508015610d6a575060408051601f3d908101601f19168201909252610d6791810190611322565b60015b610dc7573d808015610d98576040519150601f19603f3d011682016040523d82523d6000602084013e610d9d565b606091505b508051600003610dbf5760405162461bcd60e51b81526004016103f190611293565b805181602001fd5b6001600160e01b031916630a85bd0160e11b1490506109cb565b506001949350505050565b60008072184f03e93ff9f4daa797ed6e38ed64bf6a1f0160401b8310610e2b5772184f03e93ff9f4daa797ed6e38ed64bf6a1f0160401b830492506040015b6d04ee2d6d415b85acef81000000008310610e57576d04ee2d6d415b85acef8100000000830492506020015b662386f26fc100008310610e7557662386f26fc10000830492506010015b6305f5e1008310610e8d576305f5e100830492506008015b6127108310610ea157612710830492506004015b60648310610eb3576064830492506002015b600a83106102be5760010192915050565b6001600160e01b03198116811461075857600080fd5b600060208284031215610eec57600080fd5b81356106f281610ec4565b60005b83811015610f12578181015183820152602001610efa565b50506000910152565b60008151808452610f33816020860160208601610ef7565b601f01601f19169290920160200192915050565b6020815260006106f26020830184610f1b565b600060208284031215610f6c57600080fd5b5035919050565b80356001600160a01b0381168114610f8a57600080fd5b919050565b60008060408385031215610fa257600080fd5b610fab83610f73565b946020939093013593505050565b600080600060608486031215610fce57600080fd5b610fd784610f73565b9250610fe560208501610f73565b9150604084013590509250925092565b60006020828403121561100757600080fd5b6106f282610f73565b6000806040838503121561102357600080fd5b61102c83610f73565b91506020830135801515811461104157600080fd5b809150509250929050565b634e487b7160e01b600052604160045260246000fd5b6000806000806080858703121561107857600080fd5b61108185610f73565b935061108f60208601610f73565b925060408501359150606085013567ffffffffffffffff808211156110b357600080fd5b818701915087601f8301126110c757600080fd5b8135818111156110d9576110d961104c565b604051601f8201601f19908116603f011681019083821181831017156111015761110161104c565b816040528281528a602084870101111561111a57600080fd5b82602086016020830137600060208483010152809550505050505092959194509250565b6000806040838503121561115157600080fd5b61115a83610f73565b915061116860208401610f73565b90509250929050565b600181811c9082168061118557607f821691505b6020821081036111a557634e487b7160e01b600052602260045260246000fd5b50919050565b6000600182016111cb57634e487b7160e01b600052601160045260246000fd5b5060010190565b6020808252602d908201527f4552433732313a2063616c6c6572206973206e6f7420746f6b656e206f776e6560408201526c1c881bdc88185c1c1c9bdd9959609a1b606082015260800190565b60008351611231818460208801610ef7565b835190830190611245818360208801610ef7565b01949350505050565b60208082526025908201527f4552433732313a207472616e736665722066726f6d20696e636f72726563742060408201526437bbb732b960d91b606082015260800190565b60208082526032908201527f4552433732313a207472616e7366657220746f206e6f6e20455243373231526560408201527131b2b4bb32b91034b6b83632b6b2b73a32b960711b606082015260800190565b6001600160a01b038581168252841660208201526040810183905260806060820181905260009061131890830184610f1b565b9695505050505050565b60006020828403121561133457600080fd5b81516106f281610ec456fe697066733a2f2f516d5a5a7a433476374d365a54596e7545676641357177485155546d3144775246386a3343514b74593645584d462fa2646970667358221220024fa574bbaaa5a0e18fa8c2aaa9c54f1320fa43267f8e97e7599a2c61109d1664736f6c63430008130033",
    "linkReferences": {}
  },
  "methodIdentifiers": {
    "MAX_SUPPLY()": "32cb6b0c",
    "approve(address,uint256)": "095ea7b3",
    "balanceOf(address)": "70a08231",
    "getApproved(uint256)": "081812fc",
    "isApprovedForAll(address,address)": "e985e9c5",
    "mint()": "1249c58b",
    "name()": "06fdde03",
    "ownerOf(uint256)": "6352211e",
    "safeTransferFrom(address,address,uint256)": "42842e0e",
    "safeTransferFrom(address,address,uint256,bytes)": "b88d4fde",
    "setApprovalForAll(address,bool)": "a22cb465",
    "supportsInterface(bytes4)": "01ffc9a7",
    "symbol()": "95d89b41",
    "tokenSupply()": "7824407f",
    "tokenURI(uint256)": "c87b56dd",
    "transferFrom(address,address,uint256)": "23b872dd"
  },
  "id": 33
}