{
  "abi": [
    {
      "inputs": [
        {
          "internalType": "contract IERC721",
          "name": "_address",
          "type": "address"
        },
        {
          "internalType": "address",
          "name": "_rewardToken",
          "type": "address"
        }
      ],
      "stateMutability": "nonpayable",
      "type": "constructor"
    },
    {
      "anonymous": false,
      "inputs": [
        {
          "indexed": true,
          "internalType": "address",
          "name": "previousOwner",
          "type": "address"
        },
        {
          "indexed": true,
          "internalType": "address",
          "name": "newOwner",
          "type": "address"
        }
      ],
      "name": "OwnershipTransferred",
      "type": "event"
    },
    {
      "inputs": [],
      "name": "_decimals",
      "outputs": [
        {
          "internalType": "uint256",
          "name": "",
          "type": "uint256"
        }
      ],
      "stateMutability": "view",
      "type": "function"
    },
    {
      "inputs": [
        {
          "internalType": "address",
          "name": "",
          "type": "address"
        },
        {
          "internalType": "uint256",
          "name": "",
          "type": "uint256"
        }
      ],
      "name": "addressToTokenIdMap",
      "outputs": [
        {
          "internalType": "uint256",
          "name": "",
          "type": "uint256"
        }
      ],
      "stateMutability": "view",
      "type": "function"
    },
    {
      "inputs": [
        {
          "internalType": "uint256",
          "name": "tokenId",
          "type": "uint256"
        }
      ],
      "name": "calculateReward",
      "outputs": [
        {
          "internalType": "uint256",
          "name": "",
          "type": "uint256"
        },
        {
          "internalType": "uint256",
          "name": "",
          "type": "uint256"
        }
      ],
      "stateMutability": "view",
      "type": "function"
    },
    {
      "inputs": [],
      "name": "collectRewards",
      "outputs": [],
      "stateMutability": "nonpayable",
      "type": "function"
    },
    {
      "inputs": [
        {
          "internalType": "uint256",
          "name": "tokenId",
          "type": "uint256"
        }
      ],
      "name": "collectTokenRewards",
      "outputs": [],
      "stateMutability": "nonpayable",
      "type": "function"
    },
    {
      "inputs": [
        {
          "internalType": "uint256",
          "name": "tokenId",
          "type": "uint256"
        }
      ],
      "name": "getRewardPerDay",
      "outputs": [
        {
          "internalType": "uint256",
          "name": "",
          "type": "uint256"
        }
      ],
      "stateMutability": "view",
      "type": "function"
    },
    {
      "inputs": [
        {
          "internalType": "uint256",
          "name": "tokenId",
          "type": "uint256"
        }
      ],
      "name": "getStakerInfo",
      "outputs": [
        {
          "components": [
            {
              "internalType": "address",
              "name": "nftOwner",
              "type": "address"
            },
            {
              "internalType": "uint256",
              "name": "timeStaked",
              "type": "uint256"
            },
            {
              "internalType": "uint256",
              "name": "leftover",
              "type": "uint256"
            }
          ],
          "internalType": "struct NFTStaker.StakerInfo",
          "name": "",
          "type": "tuple"
        }
      ],
      "stateMutability": "view",
      "type": "function"
    },
    {
      "inputs": [
        {
          "internalType": "address",
          "name": "operator",
          "type": "address"
        },
        {
          "internalType": "address",
          "name": "from",
          "type": "address"
        },
        {
          "internalType": "uint256",
          "name": "tokenId",
          "type": "uint256"
        },
        {
          "internalType": "bytes",
          "name": "data",
          "type": "bytes"
        }
      ],
      "name": "onERC721Received",
      "outputs": [
        {
          "internalType": "bytes4",
          "name": "",
          "type": "bytes4"
        }
      ],
      "stateMutability": "nonpayable",
      "type": "function"
    },
    {
      "inputs": [],
      "name": "owner",
      "outputs": [
        {
          "internalType": "address",
          "name": "",
          "type": "address"
        }
      ],
      "stateMutability": "view",
      "type": "function"
    },
    {
      "inputs": [],
      "name": "renounceOwnership",
      "outputs": [],
      "stateMutability": "nonpayable",
      "type": "function"
    },
    {
      "inputs": [],
      "name": "rewardToken",
      "outputs": [
        {
          "internalType": "contract StakeRewardToken",
          "name": "",
          "type": "address"
        }
      ],
      "stateMutability": "view",
      "type": "function"
    },
    {
      "inputs": [
        {
          "internalType": "uint256",
          "name": "",
          "type": "uint256"
        }
      ],
      "name": "rewardsPerDay",
      "outputs": [
        {
          "internalType": "uint256",
          "name": "",
          "type": "uint256"
        }
      ],
      "stateMutability": "view",
      "type": "function"
    },
    {
      "inputs": [],
      "name": "stakeableNFT",
      "outputs": [
        {
          "internalType": "contract IERC721",
          "name": "",
          "type": "address"
        }
      ],
      "stateMutability": "view",
      "type": "function"
    },
    {
      "inputs": [
        {
          "internalType": "uint256",
          "name": "",
          "type": "uint256"
        }
      ],
      "name": "tokenIdToStaker",
      "outputs": [
        {
          "internalType": "address",
          "name": "nftOwner",
          "type": "address"
        },
        {
          "internalType": "uint256",
          "name": "timeStaked",
          "type": "uint256"
        },
        {
          "internalType": "uint256",
          "name": "leftover",
          "type": "uint256"
        }
      ],
      "stateMutability": "view",
      "type": "function"
    },
    {
      "inputs": [
        {
          "internalType": "address",
          "name": "newOwner",
          "type": "address"
        }
      ],
      "name": "transferOwnership",
      "outputs": [],
      "stateMutability": "nonpayable",
      "type": "function"
    },
    {
      "inputs": [
        {
          "internalType": "uint256",
          "name": "tokenId",
          "type": "uint256"
        }
      ],
      "name": "withdrawNFT",
      "outputs": [],
      "stateMutability": "nonpayable",
      "type": "function"
    }
  ],
  "bytecode": {
    "object": "0x610340604052600a60c0818152600b60e0819052600d610100819052610120819052600c6101408190526010610160819052601161018081905260126101a0819052600e6101c08190526101e0939093526102009790975261022092909252610240839052600f61026052610280929092526102a0919091526102c0919091526102e08190526103005261032091909152620000a090600390601462000144565b50348015620000ae57600080fd5b5060405162000e6b38038062000e6b833981016040819052620000d191620001bc565b620000dc33620000f4565b6001600160a01b039182166080521660a052620001fb565b600080546001600160a01b038381166001600160a01b0319831681178455604051919092169283917f8be0079c531659141344cd1fd0a4f28419497f9722a3daafe3b4186f6b6457e09190a35050565b82601481019282156200017a579160200282015b828111156200017a578251829060ff1690559160200191906001019062000158565b50620001889291506200018c565b5090565b5b808211156200018857600081556001016200018d565b6001600160a01b0381168114620001b957600080fd5b50565b60008060408385031215620001d057600080fd5b8251620001dd81620001a3565b6020840151909250620001f081620001a3565b809150509250929050565b60805160a051610c3562000236600039600081816102ea015261066d015260008181610179015281816103db01526104800152610c356000f3fe608060405234801561001057600080fd5b50600436106101005760003560e01c80638da5cb5b11610097578063e95abd5211610066578063e95abd5214610281578063e9ac56ba146102bf578063f2fde38b146102d2578063f7c618c1146102e557600080fd5b80638da5cb5b14610222578063b3fe65f014610233578063bad7b83414610246578063d2d7231f1461025957600080fd5b80634c30ba54116100d35780634c30ba541461017457806370bb45b3146101b357806370f8f9d9146101bb578063715018a61461021a57600080fd5b8063023245d7146101055780630a46a0081461011a578063150b7a021461014057806332424aa31461016c575b600080fd5b610118610113366004610949565b61030c565b005b61012d61012836600461097e565b610442565b6040519081526020015b60405180910390f35b61015361014e3660046109a8565b610473565b6040516001600160e01b03199091168152602001610137565b61012d601281565b61019b7f000000000000000000000000000000000000000000000000000000000000000081565b6040516001600160a01b039091168152602001610137565b61011861053e565b6101f56101c9366004610949565b60016020819052600091825260409091208054918101546002909101546001600160a01b039092169183565b604080516001600160a01b039094168452602084019290925290820152606001610137565b6101186105a1565b6000546001600160a01b031661019b565b61012d610241366004610949565b6105b5565b610118610254366004610949565b6105cc565b61026c610267366004610949565b6106d6565b60408051928352602083019190915201610137565b61029461028f366004610949565b61079e565b6040805182516001600160a01b03168152602080840151908201529181015190820152606001610137565b61012d6102cd366004610949565b61080c565b6101186102e0366004610a43565b610829565b61019b7f000000000000000000000000000000000000000000000000000000000000000081565b336103168261079e565b516001600160a01b0316146103675760405162461bcd60e51b81526020600482015260126024820152712737ba1037b934b3b4b730b61037bbb732b960711b60448201526064015b60405180910390fd5b600081815260016020818152604080842080546001600160a01b0319168155928301849055600292830184905533845291905290208054829081106103ae576103ae610a65565b6000918252602082200155604051632142170760e11b8152306004820152336024820152604481018290527f00000000000000000000000000000000000000000000000000000000000000006001600160a01b0316906342842e0e90606401600060405180830381600087803b15801561042757600080fd5b505af115801561043b573d6000803e3d6000fd5b5050505050565b6002602052816000526040600020818154811061045e57600080fd5b90600052602060002001600091509150505481565b6000336001600160a01b037f000000000000000000000000000000000000000000000000000000000000000016146104e25760405162461bcd60e51b8152602060048201526012602482015271139bdb881858d8d95c1d18589b194813919560721b604482015260640161035e565b505050600081815260016020818152604080842080546001600160a01b0319166001600160a01b039790971696871781554290840155948352600281529382208054918201815582529290209091015550630a85bd0160e11b90565b60005b3360009081526002602052604090205481101561059e57336000908152600260205260409020805461058e91908390811061057e5761057e610a65565b90600052602060002001546105cc565b61059781610a91565b9050610541565b50565b6105a961089f565b6105b360006108f9565b565b600381601481106105c557600080fd5b0154905081565b336105d68261079e565b516001600160a01b0316146106225760405162461bcd60e51b81526020600482015260126024820152712737ba1037b934b3b4b730b61037bbb732b960711b604482015260640161035e565b60008061062e836106d6565b60008581526001602081905260409182902042918101919091556002018290555163084eba7160e11b81526004810183905233602482015291935091507f00000000000000000000000000000000000000000000000000000000000000006001600160a01b03169063109d74e290604401600060405180830381600087803b1580156106b957600080fd5b505af11580156106cd573d6000803e3d6000fd5b50505050505050565b600081815260016020819052604082200154819081906106f69042610aaa565b90506000620151808261070b6012600a610ba7565b6003886014811061071e5761071e610a65565b015461072a9190610bb3565b6107349190610bb3565b61073e9190610bca565b60008681526001602052604090206002015461075a9190610bec565b90506000610770670de0b6b3a764000083610bca565b61078290670de0b6b3a7640000610bb3565b905060006107908284610aaa565b919791965090945050505050565b6107cb604051806060016040528060006001600160a01b0316815260200160008152602001600081525090565b50600090815260016020818152604092839020835160608101855281546001600160a01b031681529281015491830191909152600201549181019190915290565b60006003826014811061082157610821610a65565b015492915050565b61083161089f565b6001600160a01b0381166108965760405162461bcd60e51b815260206004820152602660248201527f4f776e61626c653a206e6577206f776e657220697320746865207a65726f206160448201526564647265737360d01b606482015260840161035e565b61059e816108f9565b6000546001600160a01b031633146105b35760405162461bcd60e51b815260206004820181905260248201527f4f776e61626c653a2063616c6c6572206973206e6f7420746865206f776e6572604482015260640161035e565b600080546001600160a01b038381166001600160a01b0319831681178455604051919092169283917f8be0079c531659141344cd1fd0a4f28419497f9722a3daafe3b4186f6b6457e09190a35050565b60006020828403121561095b57600080fd5b5035919050565b80356001600160a01b038116811461097957600080fd5b919050565b6000806040838503121561099157600080fd5b61099a83610962565b946020939093013593505050565b6000806000806000608086880312156109c057600080fd5b6109c986610962565b94506109d760208701610962565b935060408601359250606086013567ffffffffffffffff808211156109fb57600080fd5b818801915088601f830112610a0f57600080fd5b813581811115610a1e57600080fd5b896020828501011115610a3057600080fd5b9699959850939650602001949392505050565b600060208284031215610a5557600080fd5b610a5e82610962565b9392505050565b634e487b7160e01b600052603260045260246000fd5b634e487b7160e01b600052601160045260246000fd5b600060018201610aa357610aa3610a7b565b5060010190565b81810381811115610abd57610abd610a7b565b92915050565b600181815b80851115610afe578160001904821115610ae457610ae4610a7b565b80851615610af157918102915b93841c9390800290610ac8565b509250929050565b600082610b1557506001610abd565b81610b2257506000610abd565b8160018114610b385760028114610b4257610b5e565b6001915050610abd565b60ff841115610b5357610b53610a7b565b50506001821b610abd565b5060208310610133831016604e8410600b8410161715610b81575081810a610abd565b610b8b8383610ac3565b8060001904821115610b9f57610b9f610a7b565b029392505050565b6000610a5e8383610b06565b8082028115828204841417610abd57610abd610a7b565b600082610be757634e487b7160e01b600052601260045260246000fd5b500490565b80820180821115610abd57610abd610a7b56fea2646970667358221220382437120e1d112a23b4171feab0609468476fe2831ae6f02f11f71b1c0b781764736f6c63430008130033",
    "linkReferences": {}
  },
  "methodIdentifiers": {
    "_decimals()": "32424aa3",
    "addressToTokenIdMap(address,uint256)": "0a46a008",
    "calculateReward(uint256)": "d2d7231f",
    "collectRewards()": "70bb45b3",
    "collectTokenRewards(uint256)": "bad7b834",
    "getRewardPerDay(uint256)": "e9ac56ba",
    "getStakerInfo(uint256)": "e95abd52",
    "onERC721Received(address,address,uint256,bytes)": "150b7a02",
    "owner()": "8da5cb5b",
    "renounceOwnership()": "715018a6",
    "rewardToken()": "f7c618c1",
    "rewardsPerDay(uint256)": "b3fe65f0",
    "stakeableNFT()": "4c30ba54",
    "tokenIdToStaker(uint256)": "70f8f9d9",
    "transferOwnership(address)": "f2fde38b",
    "withdrawNFT(uint256)": "023245d7"
  },
  "id": 33
}